{
  "abi": [
    {
      "inputs": [
        {
          "internalType": "address",
          "name": "",
          "type": "address"
        }
      ],
      "name": "SP",
      "outputs": [
        {
          "internalType": "uint256",
          "name": "IDadmin",
          "type": "uint256"
        },
        {
          "internalType": "string",
          "name": "name",
          "type": "string"
        }
      ],
      "stateMutability": "view",
      "type": "function"
    },
    {
      "inputs": [
        {
          "internalType": "address",
          "name": "add",
          "type": "address"
        },
        {
          "internalType": "uint256",
          "name": "_ID",
          "type": "uint256"
        },
        {
          "internalType": "string",
          "name": "_name",
          "type": "string"
        },
        {
          "internalType": "int256",
          "name": "_val",
          "type": "int256"
        }
      ],
      "name": "addNoueds",
      "outputs": [],
      "stateMutability": "nonpayable",
      "type": "function"
    },
    {
      "inputs": [
        {
          "internalType": "address",
          "name": "add",
          "type": "address"
        },
        {
          "internalType": "string",
          "name": "_name",
          "type": "string"
        }
      ],
      "name": "addSP",
      "outputs": [],
      "stateMutability": "nonpayable",
      "type": "function"
    },
    {
      "inputs": [],
      "name": "envoi_au_contract",
      "outputs": [],
      "stateMutability": "payable",
      "type": "function"
    },
    {
      "inputs": [
        {
          "internalType": "address payable",
          "name": "addr",
          "type": "address"
        }
      ],
      "name": "envoi_vers_admin",
      "outputs": [],
      "stateMutability": "nonpayable",
      "type": "function"
    },
    {
      "inputs": [
        {
          "internalType": "address payable",
          "name": "ads",
          "type": "address"
        }
      ],
      "name": "envoi_vers_noueds",
      "outputs": [],
      "stateMutability": "nonpayable",
      "type": "function"
    },
    {
      "inputs": [
        {
          "internalType": "address payable",
          "name": "_add",
          "type": "address"
        },
        {
          "internalType": "uint256",
          "name": "val_conf",
          "type": "uint256"
        }
      ],
      "name": "jesaispas",
      "outputs": [],
      "stateMutability": "nonpayable",
      "type": "function"
    },
    {
      "inputs": [
        {
          "internalType": "address",
          "name": "",
          "type": "address"
        }
      ],
      "name": "noueds",
      "outputs": [
        {
          "internalType": "uint256",
          "name": "IDnoeud",
          "type": "uint256"
        },
        {
          "internalType": "string",
          "name": "name",
          "type": "string"
        },
        {
          "internalType": "int256",
          "name": "val_conf",
          "type": "int256"
        }
      ],
      "stateMutability": "view",
      "type": "function"
    },
    {
      "inputs": [
        {
          "internalType": "address",
          "name": "_add",
          "type": "address"
        }
      ],
      "name": "retourConf",
      "outputs": [
        {
          "internalType": "int256",
          "name": "",
          "type": "int256"
        }
      ],
      "stateMutability": "view",
      "type": "function"
    },
    {
      "inputs": [
        {
          "internalType": "address",
          "name": "_add",
          "type": "address"
        }
      ],
      "name": "retourNomSp",
      "outputs": [
        {
          "internalType": "string",
          "name": "",
          "type": "string"
        }
      ],
      "stateMutability": "view",
      "type": "function"
    }
  ],
  "bytecode": "608060405234801561001057600080fd5b5061088c806100206000396000f3fe6080604052600436106100915760003560e01c8063789b6b4111610059578063789b6b41146101645780638510f5ca14610191578063a5605a20146101c0578063c2f4e01f146100b6578063f95a16c7146101e057600080fd5b8063115c80eb146100965780631e6005ad146100b8578063317f628c146100d8578063635b9717146100f8578063750ca8e014610144575b600080fd5b3480156100a257600080fd5b506100b66100b1366004610671565b61020e565b005b3480156100c457600080fd5b506100b66100d33660046106d2565b610265565b3480156100e457600080fd5b506100b66100f3366004610722565b610297565b34801561010457600080fd5b50610131610113366004610722565b6001600160a01b031660009081526001602052604090206002015490565b6040519081526020015b60405180910390f35b34801561015057600080fd5b506100b661015f366004610746565b6102d4565b34801561017057600080fd5b5061018461017f366004610722565b6102e5565b60405161013b91906107bf565b34801561019d57600080fd5b506101b16101ac366004610722565b610395565b60405161013b939291906107d2565b3480156101cc57600080fd5b506100b66101db366004610722565b61043f565b3480156101ec57600080fd5b506102006101fb366004610722565b610478565b60405161013b9291906107fb565b6001600160a01b038416600090815260016020818152604090922085815584516102409391909201919085019061051d565b506001600160a01b039093166000908152600160205260409020600201929092555050565b6001600160a01b03821660009081526020818152604090912082516102929260019092019184019061051d565b505050565b6040516001600160a01b0382169060009067016345785d8a00009082818181858883f193505050501580156102d0573d6000803e3d6000fd5b5050565b600581106102d0576102d082610297565b6001600160a01b0381166000908152600160208190526040909120018054606091906103109061081c565b80601f016020809104026020016040519081016040528092919081815260200182805461033c9061081c565b80156103895780601f1061035e57610100808354040283529160200191610389565b820191906000526020600020905b81548152906001019060200180831161036c57829003601f168201915b50505050509050919050565b6001602081905260009182526040909120805491810180546103b69061081c565b80601f01602080910402602001604051908101604052809291908181526020018280546103e29061081c565b801561042f5780601f106104045761010080835404028352916020019161042f565b820191906000526020600020905b81548152906001019060200180831161041257829003601f168201915b5050505050908060020154905083565b6040516001600160a01b03821690600090674563918244f400009082818181858883f193505050501580156102d0573d6000803e3d6000fd5b6000602081905290815260409020805460018201805491929161049a9061081c565b80601f01602080910402602001604051908101604052809291908181526020018280546104c69061081c565b80156105135780601f106104e857610100808354040283529160200191610513565b820191906000526020600020905b8154815290600101906020018083116104f657829003601f168201915b5050505050905082565b8280546105299061081c565b90600052602060002090601f01602090048101928261054b5760008555610591565b82601f1061056457805160ff1916838001178555610591565b82800160010185558215610591579182015b82811115610591578251825591602001919060010190610576565b5061059d9291506105a1565b5090565b5b8082111561059d57600081556001016105a2565b6001600160a01b03811681146105cb57600080fd5b50565b634e487b7160e01b600052604160045260246000fd5b600082601f8301126105f557600080fd5b813567ffffffffffffffff80821115610610576106106105ce565b604051601f8301601f19908116603f01168101908282118183101715610638576106386105ce565b8160405283815286602085880101111561065157600080fd5b836020870160208301376000602085830101528094505050505092915050565b6000806000806080858703121561068757600080fd5b8435610692816105b6565b935060208501359250604085013567ffffffffffffffff8111156106b557600080fd5b6106c1878288016105e4565b949793965093946060013593505050565b600080604083850312156106e557600080fd5b82356106f0816105b6565b9150602083013567ffffffffffffffff81111561070c57600080fd5b610718858286016105e4565b9150509250929050565b60006020828403121561073457600080fd5b813561073f816105b6565b9392505050565b6000806040838503121561075957600080fd5b8235610764816105b6565b946020939093013593505050565b6000815180845260005b818110156107985760208185018101518683018201520161077c565b818111156107aa576000602083870101525b50601f01601f19169290920160200192915050565b60208152600061073f6020830184610772565b8381526060602082015260006107eb6060830185610772565b9050826040830152949350505050565b8281526040602082015260006108146040830184610772565b949350505050565b600181811c9082168061083057607f821691505b60208210810361085057634e487b7160e01b600052602260045260246000fd5b5091905056fea2646970667358221220490f5e346ba3b8a7b7f00bc203c1adae98cc0f9aba9ab03a724d684f82f819d464736f6c634300080e0033",
  "bytecodeSha1": "f1dddc8aea4223a3de01260f527703a7a8c9f147",
  "compiler": {
    "evm_version": "istanbul",
    "optimizer": {
      "enabled": true,
      "runs": 200
    },
    "version": "0.8.14+commit.80d49f37"
  },
  "contractName": "reseau",
  "language": "Solidity",
  "natspec": {
    "kind": "dev",
    "methods": {},
    "version": 1
  },
  "opcodes": "PUSH1 0x80 PUSH1 0x40 MSTORE PUSH1 0x4 CALLDATASIZE LT PUSH2 0x91 JUMPI PUSH1 0x0 CALLDATALOAD PUSH1 0xE0 SHR DUP1 PUSH4 0x789B6B41 GT PUSH2 0x59 JUMPI DUP1 PUSH4 0x789B6B41 EQ PUSH2 0x164 JUMPI DUP1 PUSH4 0x8510F5CA EQ PUSH2 0x191 JUMPI DUP1 PUSH4 0xA5605A20 EQ PUSH2 0x1C0 JUMPI DUP1 PUSH4 0xC2F4E01F EQ PUSH2 0xB6 JUMPI DUP1 PUSH4 0xF95A16C7 EQ PUSH2 0x1E0 JUMPI PUSH1 0x0 DUP1 REVERT JUMPDEST DUP1 PUSH4 0x115C80EB EQ PUSH2 0x96 JUMPI DUP1 PUSH4 0x1E6005AD EQ PUSH2 0xB8 JUMPI DUP1 PUSH4 0x317F628C EQ PUSH2 0xD8 JUMPI DUP1 PUSH4 0x635B9717 EQ PUSH2 0xF8 JUMPI DUP1 PUSH4 0x750CA8E0 EQ PUSH2 0x144 JUMPI JUMPDEST PUSH1 0x0 DUP1 REVERT JUMPDEST CALLVALUE DUP1 ISZERO PUSH2 0xA2 JUMPI PUSH1 0x0 DUP1 REVERT JUMPDEST POP PUSH2 0xB6 PUSH2 0xB1 CALLDATASIZE PUSH1 0x4 PUSH2 0x671 JUMP JUMPDEST PUSH2 0x20E JUMP JUMPDEST STOP JUMPDEST CALLVALUE DUP1 ISZERO PUSH2 0xC4 JUMPI PUSH1 0x0 DUP1 REVERT JUMPDEST POP PUSH2 0xB6 PUSH2 0xD3 CALLDATASIZE PUSH1 0x4 PUSH2 0x6D2 JUMP JUMPDEST PUSH2 0x265 JUMP JUMPDEST CALLVALUE DUP1 ISZERO PUSH2 0xE4 JUMPI PUSH1 0x0 DUP1 REVERT JUMPDEST POP PUSH2 0xB6 PUSH2 0xF3 CALLDATASIZE PUSH1 0x4 PUSH2 0x722 JUMP JUMPDEST PUSH2 0x297 JUMP JUMPDEST CALLVALUE DUP1 ISZERO PUSH2 0x104 JUMPI PUSH1 0x0 DUP1 REVERT JUMPDEST POP PUSH2 0x131 PUSH2 0x113 CALLDATASIZE PUSH1 0x4 PUSH2 0x722 JUMP JUMPDEST PUSH1 0x1 PUSH1 0x1 PUSH1 0xA0 SHL SUB AND PUSH1 0x0 SWAP1 DUP2 MSTORE PUSH1 0x1 PUSH1 0x20 MSTORE PUSH1 0x40 SWAP1 KECCAK256 PUSH1 0x2 ADD SLOAD SWAP1 JUMP JUMPDEST PUSH1 0x40 MLOAD SWAP1 DUP2 MSTORE PUSH1 0x20 ADD JUMPDEST PUSH1 0x40 MLOAD DUP1 SWAP2 SUB SWAP1 RETURN JUMPDEST CALLVALUE DUP1 ISZERO PUSH2 0x150 JUMPI PUSH1 0x0 DUP1 REVERT JUMPDEST POP PUSH2 0xB6 PUSH2 0x15F CALLDATASIZE PUSH1 0x4 PUSH2 0x746 JUMP JUMPDEST PUSH2 0x2D4 JUMP JUMPDEST CALLVALUE DUP1 ISZERO PUSH2 0x170 JUMPI PUSH1 0x0 DUP1 REVERT JUMPDEST POP PUSH2 0x184 PUSH2 0x17F CALLDATASIZE PUSH1 0x4 PUSH2 0x722 JUMP JUMPDEST PUSH2 0x2E5 JUMP JUMPDEST PUSH1 0x40 MLOAD PUSH2 0x13B SWAP2 SWAP1 PUSH2 0x7BF JUMP JUMPDEST CALLVALUE DUP1 ISZERO PUSH2 0x19D JUMPI PUSH1 0x0 DUP1 REVERT JUMPDEST POP PUSH2 0x1B1 PUSH2 0x1AC CALLDATASIZE PUSH1 0x4 PUSH2 0x722 JUMP JUMPDEST PUSH2 0x395 JUMP JUMPDEST PUSH1 0x40 MLOAD PUSH2 0x13B SWAP4 SWAP3 SWAP2 SWAP1 PUSH2 0x7D2 JUMP JUMPDEST CALLVALUE DUP1 ISZERO PUSH2 0x1CC JUMPI PUSH1 0x0 DUP1 REVERT JUMPDEST POP PUSH2 0xB6 PUSH2 0x1DB CALLDATASIZE PUSH1 0x4 PUSH2 0x722 JUMP JUMPDEST PUSH2 0x43F JUMP JUMPDEST CALLVALUE DUP1 ISZERO PUSH2 0x1EC JUMPI PUSH1 0x0 DUP1 REVERT JUMPDEST POP PUSH2 0x200 PUSH2 0x1FB CALLDATASIZE PUSH1 0x4 PUSH2 0x722 JUMP JUMPDEST PUSH2 0x478 JUMP JUMPDEST PUSH1 0x40 MLOAD PUSH2 0x13B SWAP3 SWAP2 SWAP1 PUSH2 0x7FB JUMP JUMPDEST PUSH1 0x1 PUSH1 0x1 PUSH1 0xA0 SHL SUB DUP5 AND PUSH1 0x0 SWAP1 DUP2 MSTORE PUSH1 0x1 PUSH1 0x20 DUP2 DUP2 MSTORE PUSH1 0x40 SWAP1 SWAP3 KECCAK256 DUP6 DUP2 SSTORE DUP5 MLOAD PUSH2 0x240 SWAP4 SWAP2 SWAP1 SWAP3 ADD SWAP2 SWAP1 DUP6 ADD SWAP1 PUSH2 0x51D JUMP JUMPDEST POP PUSH1 0x1 PUSH1 0x1 PUSH1 0xA0 SHL SUB SWAP1 SWAP4 AND PUSH1 0x0 SWAP1 DUP2 MSTORE PUSH1 0x1 PUSH1 0x20 MSTORE PUSH1 0x40 SWAP1 KECCAK256 PUSH1 0x2 ADD SWAP3 SWAP1 SWAP3 SSTORE POP POP JUMP JUMPDEST PUSH1 0x1 PUSH1 0x1 PUSH1 0xA0 SHL SUB DUP3 AND PUSH1 0x0 SWAP1 DUP2 MSTORE PUSH1 0x20 DUP2 DUP2 MSTORE PUSH1 0x40 SWAP1 SWAP2 KECCAK256 DUP3 MLOAD PUSH2 0x292 SWAP3 PUSH1 0x1 SWAP1 SWAP3 ADD SWAP2 DUP5 ADD SWAP1 PUSH2 0x51D JUMP JUMPDEST POP POP POP JUMP JUMPDEST PUSH1 0x40 MLOAD PUSH1 0x1 PUSH1 0x1 PUSH1 0xA0 SHL SUB DUP3 AND SWAP1 PUSH1 0x0 SWAP1 PUSH8 0x16345785D8A0000 SWAP1 DUP3 DUP2 DUP2 DUP2 DUP6 DUP9 DUP4 CALL SWAP4 POP POP POP POP ISZERO DUP1 ISZERO PUSH2 0x2D0 JUMPI RETURNDATASIZE PUSH1 0x0 DUP1 RETURNDATACOPY RETURNDATASIZE PUSH1 0x0 REVERT JUMPDEST POP POP JUMP JUMPDEST PUSH1 0x5 DUP2 LT PUSH2 0x2D0 JUMPI PUSH2 0x2D0 DUP3 PUSH2 0x297 JUMP JUMPDEST PUSH1 0x1 PUSH1 0x1 PUSH1 0xA0 SHL SUB DUP2 AND PUSH1 0x0 SWAP1 DUP2 MSTORE PUSH1 0x1 PUSH1 0x20 DUP2 SWAP1 MSTORE PUSH1 0x40 SWAP1 SWAP2 KECCAK256 ADD DUP1 SLOAD PUSH1 0x60 SWAP2 SWAP1 PUSH2 0x310 SWAP1 PUSH2 0x81C JUMP JUMPDEST DUP1 PUSH1 0x1F ADD PUSH1 0x20 DUP1 SWAP2 DIV MUL PUSH1 0x20 ADD PUSH1 0x40 MLOAD SWAP1 DUP2 ADD PUSH1 0x40 MSTORE DUP1 SWAP3 SWAP2 SWAP1 DUP2 DUP2 MSTORE PUSH1 0x20 ADD DUP3 DUP1 SLOAD PUSH2 0x33C SWAP1 PUSH2 0x81C JUMP JUMPDEST DUP1 ISZERO PUSH2 0x389 JUMPI DUP1 PUSH1 0x1F LT PUSH2 0x35E JUMPI PUSH2 0x100 DUP1 DUP4 SLOAD DIV MUL DUP4 MSTORE SWAP2 PUSH1 0x20 ADD SWAP2 PUSH2 0x389 JUMP JUMPDEST DUP3 ADD SWAP2 SWAP1 PUSH1 0x0 MSTORE PUSH1 0x20 PUSH1 0x0 KECCAK256 SWAP1 JUMPDEST DUP2 SLOAD DUP2 MSTORE SWAP1 PUSH1 0x1 ADD SWAP1 PUSH1 0x20 ADD DUP1 DUP4 GT PUSH2 0x36C JUMPI DUP3 SWAP1 SUB PUSH1 0x1F AND DUP3 ADD SWAP2 JUMPDEST POP POP POP POP POP SWAP1 POP SWAP2 SWAP1 POP JUMP JUMPDEST PUSH1 0x1 PUSH1 0x20 DUP2 SWAP1 MSTORE PUSH1 0x0 SWAP2 DUP3 MSTORE PUSH1 0x40 SWAP1 SWAP2 KECCAK256 DUP1 SLOAD SWAP2 DUP2 ADD DUP1 SLOAD PUSH2 0x3B6 SWAP1 PUSH2 0x81C JUMP JUMPDEST DUP1 PUSH1 0x1F ADD PUSH1 0x20 DUP1 SWAP2 DIV MUL PUSH1 0x20 ADD PUSH1 0x40 MLOAD SWAP1 DUP2 ADD PUSH1 0x40 MSTORE DUP1 SWAP3 SWAP2 SWAP1 DUP2 DUP2 MSTORE PUSH1 0x20 ADD DUP3 DUP1 SLOAD PUSH2 0x3E2 SWAP1 PUSH2 0x81C JUMP JUMPDEST DUP1 ISZERO PUSH2 0x42F JUMPI DUP1 PUSH1 0x1F LT PUSH2 0x404 JUMPI PUSH2 0x100 DUP1 DUP4 SLOAD DIV MUL DUP4 MSTORE SWAP2 PUSH1 0x20 ADD SWAP2 PUSH2 0x42F JUMP JUMPDEST DUP3 ADD SWAP2 SWAP1 PUSH1 0x0 MSTORE PUSH1 0x20 PUSH1 0x0 KECCAK256 SWAP1 JUMPDEST DUP2 SLOAD DUP2 MSTORE SWAP1 PUSH1 0x1 ADD SWAP1 PUSH1 0x20 ADD DUP1 DUP4 GT PUSH2 0x412 JUMPI DUP3 SWAP1 SUB PUSH1 0x1F AND DUP3 ADD SWAP2 JUMPDEST POP POP POP POP POP SWAP1 DUP1 PUSH1 0x2 ADD SLOAD SWAP1 POP DUP4 JUMP JUMPDEST PUSH1 0x40 MLOAD PUSH1 0x1 PUSH1 0x1 PUSH1 0xA0 SHL SUB DUP3 AND SWAP1 PUSH1 0x0 SWAP1 PUSH8 0x4563918244F40000 SWAP1 DUP3 DUP2 DUP2 DUP2 DUP6 DUP9 DUP4 CALL SWAP4 POP POP POP POP ISZERO DUP1 ISZERO PUSH2 0x2D0 JUMPI RETURNDATASIZE PUSH1 0x0 DUP1 RETURNDATACOPY RETURNDATASIZE PUSH1 0x0 REVERT JUMPDEST PUSH1 0x0 PUSH1 0x20 DUP2 SWAP1 MSTORE SWAP1 DUP2 MSTORE PUSH1 0x40 SWAP1 KECCAK256 DUP1 SLOAD PUSH1 0x1 DUP3 ADD DUP1 SLOAD SWAP2 SWAP3 SWAP2 PUSH2 0x49A SWAP1 PUSH2 0x81C JUMP JUMPDEST DUP1 PUSH1 0x1F ADD PUSH1 0x20 DUP1 SWAP2 DIV MUL PUSH1 0x20 ADD PUSH1 0x40 MLOAD SWAP1 DUP2 ADD PUSH1 0x40 MSTORE DUP1 SWAP3 SWAP2 SWAP1 DUP2 DUP2 MSTORE PUSH1 0x20 ADD DUP3 DUP1 SLOAD PUSH2 0x4C6 SWAP1 PUSH2 0x81C JUMP JUMPDEST DUP1 ISZERO PUSH2 0x513 JUMPI DUP1 PUSH1 0x1F LT PUSH2 0x4E8 JUMPI PUSH2 0x100 DUP1 DUP4 SLOAD DIV MUL DUP4 MSTORE SWAP2 PUSH1 0x20 ADD SWAP2 PUSH2 0x513 JUMP JUMPDEST DUP3 ADD SWAP2 SWAP1 PUSH1 0x0 MSTORE PUSH1 0x20 PUSH1 0x0 KECCAK256 SWAP1 JUMPDEST DUP2 SLOAD DUP2 MSTORE SWAP1 PUSH1 0x1 ADD SWAP1 PUSH1 0x20 ADD DUP1 DUP4 GT PUSH2 0x4F6 JUMPI DUP3 SWAP1 SUB PUSH1 0x1F AND DUP3 ADD SWAP2 JUMPDEST POP POP POP POP POP SWAP1 POP DUP3 JUMP JUMPDEST DUP3 DUP1 SLOAD PUSH2 0x529 SWAP1 PUSH2 0x81C JUMP JUMPDEST SWAP1 PUSH1 0x0 MSTORE PUSH1 0x20 PUSH1 0x0 KECCAK256 SWAP1 PUSH1 0x1F ADD PUSH1 0x20 SWAP1 DIV DUP2 ADD SWAP3 DUP3 PUSH2 0x54B JUMPI PUSH1 0x0 DUP6 SSTORE PUSH2 0x591 JUMP JUMPDEST DUP3 PUSH1 0x1F LT PUSH2 0x564 JUMPI DUP1 MLOAD PUSH1 0xFF NOT AND DUP4 DUP1 ADD OR DUP6 SSTORE PUSH2 0x591 JUMP JUMPDEST DUP3 DUP1 ADD PUSH1 0x1 ADD DUP6 SSTORE DUP3 ISZERO PUSH2 0x591 JUMPI SWAP2 DUP3 ADD JUMPDEST DUP3 DUP2 GT ISZERO PUSH2 0x591 JUMPI DUP3 MLOAD DUP3 SSTORE SWAP2 PUSH1 0x20 ADD SWAP2 SWAP1 PUSH1 0x1 ADD SWAP1 PUSH2 0x576 JUMP JUMPDEST POP PUSH2 0x59D SWAP3 SWAP2 POP PUSH2 0x5A1 JUMP JUMPDEST POP SWAP1 JUMP JUMPDEST JUMPDEST DUP1 DUP3 GT ISZERO PUSH2 0x59D JUMPI PUSH1 0x0 DUP2 SSTORE PUSH1 0x1 ADD PUSH2 0x5A2 JUMP JUMPDEST PUSH1 0x1 PUSH1 0x1 PUSH1 0xA0 SHL SUB DUP2 AND DUP2 EQ PUSH2 0x5CB JUMPI PUSH1 0x0 DUP1 REVERT JUMPDEST POP JUMP JUMPDEST PUSH4 0x4E487B71 PUSH1 0xE0 SHL PUSH1 0x0 MSTORE PUSH1 0x41 PUSH1 0x4 MSTORE PUSH1 0x24 PUSH1 0x0 REVERT JUMPDEST PUSH1 0x0 DUP3 PUSH1 0x1F DUP4 ADD SLT PUSH2 0x5F5 JUMPI PUSH1 0x0 DUP1 REVERT JUMPDEST DUP2 CALLDATALOAD PUSH8 0xFFFFFFFFFFFFFFFF DUP1 DUP3 GT ISZERO PUSH2 0x610 JUMPI PUSH2 0x610 PUSH2 0x5CE JUMP JUMPDEST PUSH1 0x40 MLOAD PUSH1 0x1F DUP4 ADD PUSH1 0x1F NOT SWAP1 DUP2 AND PUSH1 0x3F ADD AND DUP2 ADD SWAP1 DUP3 DUP3 GT DUP2 DUP4 LT OR ISZERO PUSH2 0x638 JUMPI PUSH2 0x638 PUSH2 0x5CE JUMP JUMPDEST DUP2 PUSH1 0x40 MSTORE DUP4 DUP2 MSTORE DUP7 PUSH1 0x20 DUP6 DUP9 ADD ADD GT ISZERO PUSH2 0x651 JUMPI PUSH1 0x0 DUP1 REVERT JUMPDEST DUP4 PUSH1 0x20 DUP8 ADD PUSH1 0x20 DUP4 ADD CALLDATACOPY PUSH1 0x0 PUSH1 0x20 DUP6 DUP4 ADD ADD MSTORE DUP1 SWAP5 POP POP POP POP POP SWAP3 SWAP2 POP POP JUMP JUMPDEST PUSH1 0x0 DUP1 PUSH1 0x0 DUP1 PUSH1 0x80 DUP6 DUP8 SUB SLT ISZERO PUSH2 0x687 JUMPI PUSH1 0x0 DUP1 REVERT JUMPDEST DUP5 CALLDATALOAD PUSH2 0x692 DUP2 PUSH2 0x5B6 JUMP JUMPDEST SWAP4 POP PUSH1 0x20 DUP6 ADD CALLDATALOAD SWAP3 POP PUSH1 0x40 DUP6 ADD CALLDATALOAD PUSH8 0xFFFFFFFFFFFFFFFF DUP2 GT ISZERO PUSH2 0x6B5 JUMPI PUSH1 0x0 DUP1 REVERT JUMPDEST PUSH2 0x6C1 DUP8 DUP3 DUP9 ADD PUSH2 0x5E4 JUMP JUMPDEST SWAP5 SWAP8 SWAP4 SWAP7 POP SWAP4 SWAP5 PUSH1 0x60 ADD CALLDATALOAD SWAP4 POP POP POP JUMP JUMPDEST PUSH1 0x0 DUP1 PUSH1 0x40 DUP4 DUP6 SUB SLT ISZERO PUSH2 0x6E5 JUMPI PUSH1 0x0 DUP1 REVERT JUMPDEST DUP3 CALLDATALOAD PUSH2 0x6F0 DUP2 PUSH2 0x5B6 JUMP JUMPDEST SWAP2 POP PUSH1 0x20 DUP4 ADD CALLDATALOAD PUSH8 0xFFFFFFFFFFFFFFFF DUP2 GT ISZERO PUSH2 0x70C JUMPI PUSH1 0x0 DUP1 REVERT JUMPDEST PUSH2 0x718 DUP6 DUP3 DUP7 ADD PUSH2 0x5E4 JUMP JUMPDEST SWAP2 POP POP SWAP3 POP SWAP3 SWAP1 POP JUMP JUMPDEST PUSH1 0x0 PUSH1 0x20 DUP3 DUP5 SUB SLT ISZERO PUSH2 0x734 JUMPI PUSH1 0x0 DUP1 REVERT JUMPDEST DUP2 CALLDATALOAD PUSH2 0x73F DUP2 PUSH2 0x5B6 JUMP JUMPDEST SWAP4 SWAP3 POP POP POP JUMP JUMPDEST PUSH1 0x0 DUP1 PUSH1 0x40 DUP4 DUP6 SUB SLT ISZERO PUSH2 0x759 JUMPI PUSH1 0x0 DUP1 REVERT JUMPDEST DUP3 CALLDATALOAD PUSH2 0x764 DUP2 PUSH2 0x5B6 JUMP JUMPDEST SWAP5 PUSH1 0x20 SWAP4 SWAP1 SWAP4 ADD CALLDATALOAD SWAP4 POP POP POP JUMP JUMPDEST PUSH1 0x0 DUP2 MLOAD DUP1 DUP5 MSTORE PUSH1 0x0 JUMPDEST DUP2 DUP2 LT ISZERO PUSH2 0x798 JUMPI PUSH1 0x20 DUP2 DUP6 ADD DUP2 ADD MLOAD DUP7 DUP4 ADD DUP3 ADD MSTORE ADD PUSH2 0x77C JUMP JUMPDEST DUP2 DUP2 GT ISZERO PUSH2 0x7AA JUMPI PUSH1 0x0 PUSH1 0x20 DUP4 DUP8 ADD ADD MSTORE JUMPDEST POP PUSH1 0x1F ADD PUSH1 0x1F NOT AND SWAP3 SWAP1 SWAP3 ADD PUSH1 0x20 ADD SWAP3 SWAP2 POP POP JUMP JUMPDEST PUSH1 0x20 DUP2 MSTORE PUSH1 0x0 PUSH2 0x73F PUSH1 0x20 DUP4 ADD DUP5 PUSH2 0x772 JUMP JUMPDEST DUP4 DUP2 MSTORE PUSH1 0x60 PUSH1 0x20 DUP3 ADD MSTORE PUSH1 0x0 PUSH2 0x7EB PUSH1 0x60 DUP4 ADD DUP6 PUSH2 0x772 JUMP JUMPDEST SWAP1 POP DUP3 PUSH1 0x40 DUP4 ADD MSTORE SWAP5 SWAP4 POP POP POP POP JUMP JUMPDEST DUP3 DUP2 MSTORE PUSH1 0x40 PUSH1 0x20 DUP3 ADD MSTORE PUSH1 0x0 PUSH2 0x814 PUSH1 0x40 DUP4 ADD DUP5 PUSH2 0x772 JUMP JUMPDEST SWAP5 SWAP4 POP POP POP POP JUMP JUMPDEST PUSH1 0x1 DUP2 DUP2 SHR SWAP1 DUP3 AND DUP1 PUSH2 0x830 JUMPI PUSH1 0x7F DUP3 AND SWAP2 POP JUMPDEST PUSH1 0x20 DUP3 LT DUP2 SUB PUSH2 0x850 JUMPI PUSH4 0x4E487B71 PUSH1 0xE0 SHL PUSH1 0x0 MSTORE PUSH1 0x22 PUSH1 0x4 MSTORE PUSH1 0x24 PUSH1 0x0 REVERT JUMPDEST POP SWAP2 SWAP1 POP JUMP INVALID LOG2 PUSH5 0x6970667358 0x22 SLT KECCAK256 0x49 0xF 0x5E CALLVALUE PUSH12 0xA3B8A7B7F00BC203C1ADAE98 0xCC 0xF SWAP11 0xBA SWAP11 0xB0 GASPRICE PUSH19 0x4D684F82F819D464736F6C634300080E003300 ",
  "sha1": "45a59f6ec6a265fd1e55d87f5ee7d35a0f075cc6",
  "source": "// SPDX-License-Identifier: MIT\n\npragma solidity >=0.4.0 <0.9.0;\npragma experimental ABIEncoderV2;\n\n\ncontract reseau {\n    \n    //------------------------------partie SP le noued principal------------------------------\n\n    // structure du noued admin\n    struct admin {\n        uint256 IDadmin;\n        string name;\n    }\n\n    mapping(address => admin) public SP;\n\n    // fonction d'ajoue de l'admin\n    function addSP(address add,string memory _name) public {\n        SP[add].name= _name;\n    }\n    //------------------------------partie SP le noued principal------------------------------\n\n    //------------------------------partie SC les differents noueds------------------------------\n\n    // structure dun noued \n    struct noued {\n        uint256 IDnoeud;\n        string name;\n        int val_conf;\n    }\n\n    mapping(address => noued ) public noueds;\n\n    // ajouter un noueds (voir script python)\n    function addNoueds(address add, uint256 _ID, string memory _name, int _val) public  {\n        noueds[add].IDnoeud= _ID;\n        noueds[add].name= _name;\n        noueds[add].val_conf= _val;\n    }\n    // retounrer le nom du SP\n    function retourNomSp(address _add) public view returns(string memory){\n        return noueds[_add].name;\n    }    \n    // retourner la valeur de confiance \n    function retourConf(address _add)public view returns(int) {\n        return noueds[_add].val_conf;\n    }\n\n    //------------------------------partie SC les differents noueds------------------------------\n\n    //------------------------------communication des noueds-------------------------------------\n\n\n    // envoi de ether appartir dun compte sur le contract general \n    function envoi_au_contract() external payable{\n    }\n\n    // puis du contract vers l'admin\n    function envoi_vers_admin(address payable addr) public{\n        addr.transfer(5000000000000000000);    \n    }\n\n\n    // de contract vers le noueds\n    function envoi_vers_noueds(address payable ads) public {\n        ads.transfer(100000000000000000);\n    }\n\n    function jesaispas(address payable _add, uint256 val_conf) public{\n            if(val_conf >= 5){\n                envoi_vers_noueds(_add);\n            }\n    }\n}",
  "sourcePath": "contracts/reseau.sol",
  "type": "contract"
}